:020000020000FC
:100000000CC00BC00AC009C008C007C006C005C0AC
:1000100004C003C002C001C000C010E114BB10E264
:1000200015BB10E011BB10E012BB1FE017BB10E0C6
:1000300018BB1FE51DBF12E01EBFA598AD98B0E02C
:10004000A0E71FE3F12E26D03332B9F723D03D933A
:1000500021D03D931FD03D931DD01F2D103069F747
:10006000A0E73D9131BB3D9132BB3D913F7038BB24
:10007000AC9A06D0AC9830E038BB31BB32BBDDCF98
:1000800010E220E030E03A95F1F72A95D9F71A9579
:10009000C1F7089508E09D9BFECF18E60DD00BD068
:1000A00088949D9B089437950A95C9F7F32603D049
:1000B0009D9BFECF08951CEC1A950000E9F7000007
:0200C0000895A1
:00000001FF

